S010000044413346696E616C2E7372656372
S11300000C9434000C9446000C9446000C94460066
S11300100C9446000C9446000C9446000C94460044
S11300200C9446000C9446000C9446000C94460034
S11300300C9446000C9494000C9446000C944600D6
S11300400C9446000C9446000C9446000C94460014
S11300500C9446000C9483000C9446000C944600C7
S11300600C9446000C94460011241FBECFEFD8E038
S1130070DEBFCDBF21E0A0E0B1E001C01D92A13000
S1130080B207E1F70E9448000C94B7000C940000FA
S1130090ECE7F0E01082808180648083808180625C
S11300A08083EAE7F0E080818760808380818062DA
S11300B0808310927B008081806880838081886047
S11300C080838081806480831092C50087E680935A
S11300D0C400E1ECF0E0808188618083E2ECF0E030
S11300E08081866080831092800085E08093810007
S11300F087EF92EC909385008093840081E0809355
S11301006F007894FFCF1F920F920FB60F921124B5
S11301108F9380917900880F809300018F910F90C5
S11301200FBE0F901F9018951F920F920FB60F924B
S113013011248F939F93EF93FF9387EF92EC909307
S113014085008093840081E086BBE0ECF0E0808150
S113015085FFFDCF809100018093C600FF91EF9150
S11301609F918F910F900FBE0F901F901895F89448
S1050170FFCFBB
S9030000FC
